:100000000C9456000C9409010C9409010C940901FC
:100010000C9409010C9409010C9409010C94090138
:100020000C9409010C9409010C9409010C94090128
:100030000C9409010C9409010C9409010C94090118
:100040000C9409010C9409010C9409010C94090108
:100050000C9409010C9409010C9409010C940901F8
:100060000C9409010C9409010C9409010C940901E8
:100070000C9409010C9409010C9409010C940901D8
:100080000C9409010C9409010C9409010C940901C8
:100090000C9409010C9409010C9409010C940901B8
:1000A0000C9409010C9409010C94090111241FBE40
:1000B000CFEFDAE0DEBFCDBF0E9462000C94F40007
:0400C000F894FFCFE2
:1000C400CF92DF92EF92FF920F931F93CF9384B15D
:1000D400806184B90E94FF00E12CF12C30C08C2F88
:1000E400880F0E94AF00882321F00F5F1F4F0E94EA
:1000F4000501CF5F03C0C1E000E010E0CF3778F323
:10010400C12CD12C12C085B1C0E18C2785B984EFF4
:1001140091E00E94E10085B1C827C5B984EF91E060
:100124000E94E1008FEFC81AD80AC016D1065CF30A
:1001340088E893E10E94E1008FEFE81AF80A83E06F
:10014400E816F104C4F280E090E0CF911F910F9182
:0A015400FF90EF90DF90CF90089528
:10015E0094EA9093BC009091BC009923E4F78093AD
:10016E00BB0094E89093BC009091BC009923E4F7F7
:10017E009091B900987F983029F09091B900987FAE
:10018E00903191F48093BB0084E88093BC00809101
:10019E00BC008823E4F78091B900887F883131F064
:1001AE00803431F481E0089580E0089581E008956F
:0401BE0080E0089540
:1001C20040E050E00CC000002F5F3F4F02C020E033
:1001D20030E0283E63E03607B4F34F5F5F4F4817C5
:0601E2005907A8F308957F
:1001E800EC010E940E010E940D01CE010E940F0138
:0601F800CE010E940B0184
:0C01FE001092B9008CE08093B8000895C6
:08020A0084E98093BC00089513
:040212000C94000048
:040216000E946000E2
:02021A00089545
:02021C00089543
:02021E00089541
:00000001FF
